{
  "contractName": "AgroFarmer",
  "abi": [
    {
      "constant": true,
      "inputs": [
        {
          "internalType": "uint256",
          "name": "",
          "type": "uint256"
        }
      ],
      "name": "farmers",
      "outputs": [
        {
          "internalType": "string",
          "name": "farmerId",
          "type": "string"
        },
        {
          "internalType": "string",
          "name": "farmerName",
          "type": "string"
        },
        {
          "internalType": "string",
          "name": "location",
          "type": "string"
        },
        {
          "internalType": "string",
          "name": "cropType",
          "type": "string"
        },
        {
          "internalType": "uint256",
          "name": "phoneNumber",
          "type": "uint256"
        },
        {
          "internalType": "uint256",
          "name": "cropQuantity",
          "type": "uint256"
        },
        {
          "internalType": "uint256",
          "name": "price",
          "type": "uint256"
        }
      ],
      "payable": false,
      "stateMutability": "view",
      "type": "function"
    },
    {
      "constant": true,
      "inputs": [],
      "name": "s",
      "outputs": [
        {
          "internalType": "uint256",
          "name": "",
          "type": "uint256"
        }
      ],
      "payable": false,
      "stateMutability": "view",
      "type": "function"
    },
    {
      "constant": true,
      "inputs": [],
      "name": "getBalance",
      "outputs": [
        {
          "internalType": "uint256",
          "name": "",
          "type": "uint256"
        }
      ],
      "payable": false,
      "stateMutability": "view",
      "type": "function"
    },
    {
      "constant": false,
      "inputs": [
        {
          "internalType": "address payable",
          "name": "add",
          "type": "address"
        }
      ],
      "name": "send",
      "outputs": [],
      "payable": true,
      "stateMutability": "payable",
      "type": "function"
    },
    {
      "constant": false,
      "inputs": [],
      "name": "invest",
      "outputs": [],
      "payable": true,
      "stateMutability": "payable",
      "type": "function"
    },
    {
      "constant": false,
      "inputs": [
        {
          "internalType": "string",
          "name": "id",
          "type": "string"
        },
        {
          "internalType": "string",
          "name": "name",
          "type": "string"
        },
        {
          "internalType": "string",
          "name": "location",
          "type": "string"
        },
        {
          "internalType": "string",
          "name": "crop",
          "type": "string"
        },
        {
          "internalType": "uint256",
          "name": "phone",
          "type": "uint256"
        },
        {
          "internalType": "uint256",
          "name": "quantity",
          "type": "uint256"
        },
        {
          "internalType": "uint256",
          "name": "price",
          "type": "uint256"
        }
      ],
      "name": "createFarmer",
      "outputs": [],
      "payable": false,
      "stateMutability": "nonpayable",
      "type": "function"
    },
    {
      "constant": true,
      "inputs": [
        {
          "internalType": "string",
          "name": "j",
          "type": "string"
        }
      ],
      "name": "getFarmer",
      "outputs": [
        {
          "internalType": "string",
          "name": "",
          "type": "string"
        },
        {
          "internalType": "string",
          "name": "",
          "type": "string"
        },
        {
          "internalType": "string",
          "name": "",
          "type": "string"
        },
        {
          "internalType": "string",
          "name": "",
          "type": "string"
        },
        {
          "internalType": "uint256",
          "name": "",
          "type": "uint256"
        },
        {
          "internalType": "uint256",
          "name": "",
          "type": "uint256"
        },
        {
          "internalType": "uint256",
          "name": "",
          "type": "uint256"
        }
      ],
      "payable": false,
      "stateMutability": "view",
      "type": "function"
    }
  ],
  "bytecode": "0x6080604052600160005534801561001557600080fd5b50611490806100256000396000f3fe6080604052600436106100705760003560e01c80638afdd6691161004e5780638afdd6691461010f578063ab4dd3c21461031c578063b1514942146105c7578063e8b5e51f1461086157610070565b806312065fe0146100755780633e58c58c146100a057806386b714e2146100e4575b600080fd5b34801561008157600080fd5b5061008a61086b565b6040518082815260200191505060405180910390f35b6100e2600480360360208110156100b657600080fd5b81019080803573ffffffffffffffffffffffffffffffffffffffff169060200190929190505050610873565b005b3480156100f057600080fd5b506100f961091d565b6040518082815260200191505060405180910390f35b34801561011b57600080fd5b506101486004803603602081101561013257600080fd5b8101908080359060200190929190505050610923565b604051808060200180602001806020018060200188815260200187815260200186815260200185810385528c818151815260200191508051906020019080838360005b838110156101a657808201518184015260208101905061018b565b50505050905090810190601f1680156101d35780820380516001836020036101000a031916815260200191505b5085810384528b818151815260200191508051906020019080838360005b8381101561020c5780820151818401526020810190506101f1565b50505050905090810190601f1680156102395780820380516001836020036101000a031916815260200191505b5085810383528a818151815260200191508051906020019080838360005b83811015610272578082015181840152602081019050610257565b50505050905090810190601f16801561029f5780820380516001836020036101000a031916815260200191505b50858103825289818151815260200191508051906020019080838360005b838110156102d85780820151818401526020810190506102bd565b50505050905090810190601f1680156103055780820380516001836020036101000a031916815260200191505b509b50505050505050505050505060405180910390f35b34801561032857600080fd5b506105c5600480360360e081101561033f57600080fd5b810190808035906020019064010000000081111561035c57600080fd5b82018360208201111561036e57600080fd5b8035906020019184600183028401116401000000008311171561039057600080fd5b91908080601f016020809104026020016040519081016040528093929190818152602001838380828437600081840152601f19601f820116905080830192505050505050509192919290803590602001906401000000008111156103f357600080fd5b82018360208201111561040557600080fd5b8035906020019184600183028401116401000000008311171561042757600080fd5b91908080601f016020809104026020016040519081016040528093929190818152602001838380828437600081840152601f19601f8201169050808301925050505050505091929192908035906020019064010000000081111561048a57600080fd5b82018360208201111561049c57600080fd5b803590602001918460018302840111640100000000831117156104be57600080fd5b91908080601f016020809104026020016040519081016040528093929190818152602001838380828437600081840152601f19601f8201169050808301925050505050505091929192908035906020019064010000000081111561052157600080fd5b82018360208201111561053357600080fd5b8035906020019184600183028401116401000000008311171561055557600080fd5b91908080601f016020809104026020016040519081016040528093929190818152602001838380828437600081840152601f19601f820116905080830192505050505050509192919290803590602001909291908035906020019092919080359060200190929190505050610bd2565b005b3480156105d357600080fd5b5061068d600480360360208110156105ea57600080fd5b810190808035906020019064010000000081111561060757600080fd5b82018360208201111561061957600080fd5b8035906020019184600183028401116401000000008311171561063b57600080fd5b91908080601f016020809104026020016040519081016040528093929190818152602001838380828437600081840152601f19601f820116905080830192505050505050509192919290505050610dec565b604051808060200180602001806020018060200188815260200187815260200186815260200185810385528c818151815260200191508051906020019080838360005b838110156106eb5780820151818401526020810190506106d0565b50505050905090810190601f1680156107185780820380516001836020036101000a031916815260200191505b5085810384528b818151815260200191508051906020019080838360005b83811015610751578082015181840152602081019050610736565b50505050905090810190601f16801561077e5780820380516001836020036101000a031916815260200191505b5085810383528a818151815260200191508051906020019080838360005b838110156107b757808201518184015260208101905061079c565b50505050905090810190601f1680156107e45780820380516001836020036101000a031916815260200191505b50858103825289818151815260200191508051906020019080838360005b8381101561081d578082015181840152602081019050610802565b50505050905090810190601f16801561084a5780820380516001836020036101000a031916815260200191505b509b50505050505050505050505060405180910390f35b610869611377565b005b600047905090565b8073ffffffffffffffffffffffffffffffffffffffff166108fc349081150290604051600060405180830381858888f1935050505061091a576040517f08c379a00000000000000000000000000000000000000000000000000000000081526004018080602001828103825260088152602001807f6e6f2066756e647300000000000000000000000000000000000000000000000081525060200191505060405180910390fd5b50565b60005481565b6003818154811061093057fe5b9060005260206000209060070201600091509050806000018054600181600116156101000203166002900480601f0160208091040260200160405190810160405280929190818152602001828054600181600116156101000203166002900480156109dc5780601f106109b1576101008083540402835291602001916109dc565b820191906000526020600020905b8154815290600101906020018083116109bf57829003601f168201915b505050505090806001018054600181600116156101000203166002900480601f016020809104026020016040519081016040528092919081815260200182805460018160011615610100020316600290048015610a7a5780601f10610a4f57610100808354040283529160200191610a7a565b820191906000526020600020905b815481529060010190602001808311610a5d57829003601f168201915b505050505090806002018054600181600116156101000203166002900480601f016020809104026020016040519081016040528092919081815260200182805460018160011615610100020316600290048015610b185780601f10610aed57610100808354040283529160200191610b18565b820191906000526020600020905b815481529060010190602001808311610afb57829003601f168201915b505050505090806003018054600181600116156101000203166002900480601f016020809104026020016040519081016040528092919081815260200182805460018160011615610100020316600290048015610bb65780601f10610b8b57610100808354040283529160200191610bb6565b820191906000526020600020905b815481529060010190602001808311610b9957829003601f168201915b5050505050908060040154908060050154908060060154905087565b610bda611379565b6040518060e00160405280898152602001888152602001878152602001868152602001858152602001848152602001838152509050806002896040518082805190602001908083835b60208310610c465780518252602082019150602081019050602083039250610c23565b6001836020036101000a03801982511681845116808217855250505050505090500191505090815260200160405180910390206000820151816000019080519060200190610c959291906113b6565b506020820151816001019080519060200190610cb29291906113b6565b506040820151816002019080519060200190610ccf9291906113b6565b506060820151816003019080519060200190610cec9291906113b6565b506080820151816004015560a0820151816005015560c08201518160060155905050600381908060018154018082558091505090600182039060005260206000209060070201600090919290919091506000820151816000019080519060200190610d589291906113b6565b506020820151816001019080519060200190610d759291906113b6565b506040820151816002019080519060200190610d929291906113b6565b506060820151816003019080519060200190610daf9291906113b6565b506080820151816004015560a0820151816005015560c0820151816006015550505060008081548092919060010191905055505050505050505050565b60608060608060008060006002886040518082805190602001908083835b60208310610e2d5780518252602082019150602081019050602083039250610e0a565b6001836020036101000a03801982511681845116808217855250505050505090500191505090815260200160405180910390206000016002896040518082805190602001908083835b60208310610e995780518252602082019150602081019050602083039250610e76565b6001836020036101000a038019825116818451168082178552505050505050905001915050908152602001604051809103902060010160028a6040518082805190602001908083835b60208310610f055780518252602082019150602081019050602083039250610ee2565b6001836020036101000a038019825116818451168082178552505050505050905001915050908152602001604051809103902060020160028b6040518082805190602001908083835b60208310610f715780518252602082019150602081019050602083039250610f4e565b6001836020036101000a038019825116818451168082178552505050505050905001915050908152602001604051809103902060030160028c6040518082805190602001908083835b60208310610fdd5780518252602082019150602081019050602083039250610fba565b6001836020036101000a03801982511681845116808217855250505050505090500191505090815260200160405180910390206004015460028d6040518082805190602001908083835b6020831061104a5780518252602082019150602081019050602083039250611027565b6001836020036101000a03801982511681845116808217855250505050505090500191505090815260200160405180910390206005015460028e6040518082805190602001908083835b602083106110b75780518252602082019150602081019050602083039250611094565b6001836020036101000a038019825116818451168082178552505050505050905001915050908152602001604051809103902060060154868054600181600116156101000203166002900480601f0160208091040260200160405190810160405280929190818152602001828054600181600116156101000203166002900480156111835780601f1061115857610100808354040283529160200191611183565b820191906000526020600020905b81548152906001019060200180831161116657829003601f168201915b50505050509650858054600181600116156101000203166002900480601f01602080910402602001604051908101604052809291908181526020018280546001816001161561010002031660029004801561121f5780601f106111f45761010080835404028352916020019161121f565b820191906000526020600020905b81548152906001019060200180831161120257829003601f168201915b50505050509550848054600181600116156101000203166002900480601f0160208091040260200160405190810160405280929190818152602001828054600181600116156101000203166002900480156112bb5780601f10611290576101008083540402835291602001916112bb565b820191906000526020600020905b81548152906001019060200180831161129e57829003601f168201915b50505050509450838054600181600116156101000203166002900480601f0160208091040260200160405190810160405280929190818152602001828054600181600116156101000203166002900480156113575780601f1061132c57610100808354040283529160200191611357565b820191906000526020600020905b81548152906001019060200180831161133a57829003601f168201915b505050505093509650965096509650965096509650919395979092949650565b565b6040518060e00160405280606081526020016060815260200160608152602001606081526020016000815260200160008152602001600081525090565b828054600181600116156101000203166002900490600052602060002090601f016020900481019282601f106113f757805160ff1916838001178555611425565b82800160010185558215611425579182015b82811115611424578251825591602001919060010190611409565b5b5090506114329190611436565b5090565b61145891905b8082111561145457600081600090555060010161143c565b5090565b9056fea265627a7a72315820be8ac09bbf6fd89668e7fc7ef70dca1a92183b2f477d5c24e2d35a4e18737d9a64736f6c63430005100032",
  "source": "contract AgroFarmer {\r\n    uint256 public s = 1;\r\n    mapping(address => uint256) balances;\r\n    mapping(string => farmer) f1;\r\n    farmer[] public farmers;\r\n\r\n    struct farmer {\r\n        string farmerId;\r\n        string farmerName;\r\n        string location;\r\n        string cropType;\r\n        uint256 phoneNumber;\r\n        uint256 cropQuantity;\r\n        uint256 price;\r\n    }\r\n\r\n    function getBalance() public view returns (uint256) {\r\n        return address(this).balance;\r\n    }\r\n\r\n    function send(address payable add) public payable {\r\n        require(add.send(msg.value), \"no funds\");\r\n    }\r\n\r\n    function invest() external payable {}\r\n\r\n    function createFarmer(\r\n        string memory id,\r\n        string memory name,\r\n        string memory location,\r\n        string memory crop,\r\n        uint256 phone,\r\n        uint256 quantity,\r\n        uint256 price\r\n    ) public {\r\n        AgroFarmer.farmer memory newFarmer = farmer(\r\n            id,\r\n            name,\r\n            location,\r\n            crop,\r\n            phone,\r\n            quantity,\r\n            price\r\n        );\r\n        f1[id] = newFarmer;\r\n        farmers.push(newFarmer);\r\n        s++;\r\n    }\r\n\r\n    function getFarmer(string memory j)\r\n        public\r\n        view\r\n        returns (\r\n            string memory,\r\n            string memory,\r\n            string memory,\r\n            string memory,\r\n            uint256,\r\n            uint256,\r\n            uint256\r\n        )\r\n    {\r\n        return (\r\n            f1[j].farmerId,\r\n            f1[j].farmerName,\r\n            f1[j].location,\r\n            f1[j].cropType,\r\n            f1[j].phoneNumber,\r\n            f1[j].cropQuantity,\r\n            f1[j].price\r\n        );\r\n    }\r\n}\r\n",
  "sourcePath": "C:\\Users\\valve\\Documents\\GIT\\blockchainProject\\contracts\\AgroFarmer.sol",
  "compiler": {
    "name": "solc",
    "version": "0.5.16+commit.9c3226ce.Emscripten.clang"
  },
  "schemaVersion": "3.2.0",
  "updatedAt": "2020-05-31T14:31:17.593Z",
  "networkType": "ethereum",
  "devdoc": {
    "methods": {}
  },
  "userdoc": {
    "methods": {}
  }
}